:1000000012C02CC02BC02AC029C028C027C026C0BF
:1000100025C024C023C022C021C020C01FC01EC0D4
:100020001DC01CC01BC011241FBECFE5D4E0DEBF25
:10003000CDBF10E0A0E6B0E0ECE7F8E002C005902C
:100040000D92AE36B107D9F710E0AEE6B0E001C0D0
:100050001D92A438B107E1F7B0D10EC4D1CF8FE023
:1000600087BB8FB5806A8FBD8EB583608EBD8FB51F
:1000700082608FBD8EB580618EBD8AEF90E097BDA6
:1000800086BD08959C0197FD04C088B3847088BB29
:1000900003C0C39A26503F4F39BD28BD77FD04C029
:1000A00088B3827088BB03C0C09A66507F4F7BBD07
:1000B0006ABD08952091600030916100EEE6F0E0A5
:1000C00080E090E003C0119211920196821793078D
:1000D000D4F383B390E08170907090936F0080931D
:1000E0006E0083B390E08270907090937100809363
:1000F000700083B390E0847090709093730080934D
:10010000720083B390E08870907090937500809334
:10011000740083B390E08071907090937700809327
:10012000760083B390E08072907090937900809312
:10013000780086B390E08071907090937B008093FC
:100140007A0086B390E08072907090937D008093E7
:100150007C0008956F927F928F929F92AF92BF9290
:10016000CF92DF92EF92FF920F931F93CF93DF9383
:10017000A1DFA0906000B0906100CC24DD24992420
:100180008824EE24FF24870138EE632E33E0732E9B
:1001900027C0FC01EE0FFF1FE259FF4FC081D18144
:1001A000C93CD10514F088248394C333D105BCF035
:1001B000869DB001879D700D969D700D1124882736
:1001C00077FD8095982F9E01442737FD4095542F49
:1001D000EBD2E60EF71E081F191FCC0EDD1E9394FE
:1001E000892D90E08A159B05A4F2882011F584EFF3
:1001F00091E09C01A29EC001A39E900DB29E900D25
:100200001124845F9140209182003091830028174F
:1002100039071CF440E050E017C088EE93E0A89E38
:10022000A001A99E500DB89E500D1124485E534068
:100230000BC0960140E050E0C801B701E7D2A90128
:100240003093830020938200CA01DF91CF911F91E8
:100250000F91FF90EF90DF90CF90BF90AF909F9065
:100260008F907F906F900895AF92BF92CF92DF9260
:10027000EF92FF920F931F936DDF209160003091FA
:10028000610004EF11E0A901409F9001419F300DF2
:10029000509F300D1124021B130B080F191FA09043
:1002A0007E00B0907F00B801882777FD8095982F59
:1002B0008CD1209162003091630040916400509194
:1002C0006500E8D06B017C01B501882777FD80953A
:1002D000982F7BD120916600309167004091680093
:1002E00050916900D7D09B01AC01C701B6016ED017
:1002F0006B017C018091800090918100B801681BA6
:10030000790B882777FD8095982F5FD120916A001F
:1003100030916B0040916C0050916D00E2D19B01D7
:10032000AC01C701B60152D01DD1AB0110938100C1
:1003300000938000A00EB11EB0927F00A0927E00BC
:10034000693C71051CF048EC50E006C02FEF6833A3
:1003500072074CF077FD09C028EC30E0241B350B08
:10036000E8ECF0E007C048E35FEFFA01E853FF4F25
:1003700028EC30E0CF01821B930B8531910534F0DE
:1003800062E070E030D2E61BF70B0BC0C9018E1B98
:100390009F0B853191052CF062E070E024D2261B82
:1003A000370BCF01B9016EDE1F910F91FF90EF90D7
:1003B000DF90CF90BF90AF9008958FE087BB14BAC5
:1003C0008FEF81BB4CDE50DFFECF5058BB27AA27F2
:1003D0000ED04DC13ED130F043D120F031F49F3FDB
:1003E00011F41EF433C10EF4E095E7FB29C1E92FA7
:1003F0004FD180F3BA17620773078407950718F087
:1004000071F49EF567C10EF4E0950B2EBA2FA02D66
:100410000B01B90190010C01CA01A0011124FF27B1
:10042000591B99F0593F50F4503E68F11A16F040AC
:10043000A22F232F342F4427585FF3CF46953795AB
:100440002795A795F0405395C9F77EF41F16BA0B70
:10045000620B730B840BBAF09150A1F0FF0FBB1F1E
:10046000661F771F881FC2F70EC0BA0F621F731F67
:10047000841F48F4879577956795B795F7959E3FC4
:1004800008F0B3CF9395880F08F09927EE0F979552
:10049000879508950CD0EBC0E3D040F0DAD030F06F
:1004A00021F45F3F19F0CCC0511115C1CFC0F0D07D
:1004B00098F39923C9F35523B1F3951B550BBB272B
:1004C000AA2762177307840738F09F5F5F4F220FD8
:1004D000331F441FAA1FA9F333D00E2E3AF0E0E8D1
:1004E00030D091505040E695001CCAF729D0FE2F1D
:1004F00027D0660F771F881FBB1F261737074807AF
:10050000AB07B0E809F0BB0B802DBF01FF27935864
:100510005F4F2AF09E3F510568F092C0DCC05F3FFC
:10052000ECF3983EDCF3869577956795B795F7954C
:100530009F5FC9F7880F911D9695879597F9089544
:10054000E1E0660F771F881FBB1F621773078407E0
:10055000BA0720F0621B730B840BBA0BEE1F88F7EF
:10056000E095089504D06894B111B5C0089598D06D
:1005700088F09F5790F0B92F9927B751A0F0D1F08C
:10058000660F771F881F991F1AF0BA95C9F712C016
:10059000B13081F09FD0B1E008959CC0672F782FD3
:1005A0008827B85F39F0B93FCCF386957795679582
:1005B000B395D9F73EF490958095709561957F4FEE
:1005C0008F4F9F4F0895E89409C097FB3EF4909594
:1005D0008095709561957F4F8F4F9F4F9923A9F01C
:1005E000F92F96E9BB279395F695879577956795AB
:1005F000B795F111F8CFFAF4BB0F11F460FF1BC0EF
:100600006F5F7F4F8F4F9F4F16C0882311F096E981
:1006100011C0772321F09EE8872F762F05C066232F
:1006200071F096E8862F70E060E02AF09A95660FE8
:10063000771F881FDAF7880F9695879597F90895A1
:1006400097F99F6780E870E060E008959FEF80EC85
:10065000089500240A941616170618060906089528
:1006600000240A9412161306140605060895092E8E
:100670000394000C11F4882352F0BB0F40F4BF2BFD
:1006800011F460FF04C06F5F7F4F8F4F9F4F08953D
:1006900057FD9058440F551F59F05F3F71F0479533
:1006A000880F97FB991F61F09F3F79F08795089518
:1006B000121613061406551FF2CF4695F1DF08C037
:1006C000161617061806991FF1CF86957105610554
:1006D00008940895E894BB2766277727CB0197F9FC
:1006E00008950BD0C4CFB5DF28F0BADF18F09523FA
:1006F00009F0A6CFABCF1124EECFCADFA0F3959FB0
:10070000D1F3950F50E0551F629FF001729FBB27F8
:10071000F00DB11D639FAA27F00DB11DAA1F649FA4
:100720006627B00DA11D661F829F2227B00DA11D57
:10073000621F739FB00DA11D621F839FA00D611DDD
:10074000221F749F3327A00D611D231F849F600DFE
:10075000211D822F762F6A2F11249F5750408AF037
:10076000E1F088234AF0EE0FFF1FBB1F661F771FC3
:10077000881F91505040A9F79E3F510570F060CFFF
:10078000AACF5F3FECF3983EDCF3869577956795AB
:10079000B795F795E7959F5FC1F7FE2B880F911DE1
:1007A0009695879597F90895629FD001739FF00100
:1007B000829FE00DF11D649FE00DF11D929FF00DF1
:1007C000839FF00D749FF00D659FF00D9927729F28
:1007D000B00DE11DF91F639FB00DE11DF91FBD01B3
:1007E000CF011124089597FB092E07260AD077FD23
:1007F00004D02ED006D000201AF4709561957F4F5A
:100800000895F6F7909581959F4F0895A1E21A2ECD
:10081000AA1BBB1BFD010DC0AA1FBB1FEE1FFF1FA4
:10082000A217B307E407F50720F0A21BB30BE40BF4
:10083000F50B661F771F881F991F1A9469F760953B
:100840007095809590959B01AC01BD01CF010895F5
:10085000AA1BBB1B51E107C0AA1FBB1FA617B707E6
:1008600010F0A61BB70B881F991F5A95A9F7809502
:0C0870009095BC01CD010895F894FFCFD5
:0E087C0008000000404000504347000080414B
:00000001FF
